:020000040800F2
:1000000040120020010100082314000843120008D8
:1000100021140008D1030008C91A000800000000DC
:10002000000000000000000000000000DB180008D5
:10003000D3030008000000006D180008251900080F
:100040001B0100081B0100081B0100081B01000820
:100050001B0100081B0100081B0100081B01000810
:100060001B0100081B0100081B0100081B01000800
:100070001B0100081B0100081B0100081B010008F0
:100080001B0100081B0100081B0100081B010008E0
:100090001B0100081B0100081B0100081B010008D0
:1000A0001B0100081B0100081B0100081B010008C0
:1000B0001B0100081B010008000000001B010008D4
:1000C0001B01000800000000000000001B010008E8
:1000D000000000001B0100081B01000800000000D8
:1000E0001B0100081B0100081B010008DFF80CD0F1
:1000F00000F02AF800480047811D00084012002047
:100100000648804706480047FEE7FEE7FEE7FEE7B1
:10011000FEE7FEE7FEE7FEE7FEE7FEE7AB190008B5
:10012000ED000008D2B201E000F8012B491EFBD21D
:1001300070470022F6E710B513460A4604461946F2
:10014000FFF7F0FF204610BD064C074D06E0E068C3
:1001500040F0010394E8070098471034AC42F6D30E
:10016000FFF7C8FF903D0008B03D000870B58C183F
:1001700010F8015B15F0070301D110F8013B2A11BB
:1001800006D110F8012B03E010F8016B01F8016BA8
:100190005B1EF9D12B0705D40023521E0DD401F8A4
:1001A000013BFAE710F8013BCB1A921C03E013F86D
:1001B000015B01F8015B521EF9D5A142D8D30020A2
:1001C00070BD00001CB509A001F080FC01240B48A3
:1001D000CDE90004002140238022084601F0DDFA29
:1001E00001F0FEF90548083804701CBD627574748E
:1001F0006F6E3120646F776E210D0A0008000020B9
:1002000001A001F063BC0000627574746F6E312050
:100210007570210D0A0000001CB509A001F056FC04
:1002200001210B48CDE9000100214023802208462E
:1002300001F0B3FA01F0D4F90649022008701CBDA0
:10024000627574746F6E3220646F776E210D0A00D0
:10025000080400200000002001A001F037BC0000CD
:10026000627574746F6E32207570210D0A00000083
:100270001CB509A001F02AFC01210B48CDE90001C1
:10028000002140238022084601F087FA01F0A8F9F6
:100290000649032008701CBD627574746F6E3320AC
:1002A000646F776E210D0A00080400200000002012
:1002B00001A001F00BBC0000627574746F6E3320F6
:1002C0007570210D0A0000001CB509A001F0FEFBAD
:1002D00001210B48CDE9000100214023802208467E
:1002E00001F05BFA01F07CF90649042008701CBD9E
:1002F000627574746F6E3420646F776E210D0A001E
:10030000080400200000002001A001F0DFBB000075
:10031000627574746F6E34207570210D0A000000D0
:100320001CB509A001F0D2FB01210B48CDE9000169
:10033000002140238022084601F02FFA01F050F9F5
:100340000649052008701CBD627574746F6E3520F7
:10035000646F776E210D0A00080400200000002061
:1003600001A001F0B3BB0000627574746F6E35209C
:100370007570210D0A0000001CB509A001F0A6FB54
:1003800001210B48CDE900010021402380220846CD
:1003900001F003FA01F024F90649062008701CBD9B
:1003A000627574746F6E3620646F776E210D0A006B
:1003B000080400200000002001A001F087BB00001D
:1003C000627574746F6E36207570210D0A0000001E
:1003D000FEE7704772B6FEE770B5044600F0F8F825
:1003E0000546601C02D004480078044400F0F0F890
:1003F000401BA042FAD370BD080800202DE9F84F39
:10040000DFF89C91002409F1040A0AF1040B234649
:100410000F270BF1040EBBE00125A5402A40AA429C
:1004200076D1DFF880C14E68A6EB0C0866452BD06C
:100430000DDC032E34D005DC36B3012E19D0022E8C
:100440002FD11BE0112E16D0122E2AD119E0B8F5AB
:10045000881F19D006DCB8F5803F15D0B8F5801F8D
:100460001FD111E0B8F5001F0ED0B8F5041F18D148
:100470000AE0CB6815E0CB681B1D12E0CB6808339F
:100480000FE0CB680C330CE08B682BB1012B4FF0E5
:10049000080303D0456104E0042302E0056100E0A5
:1004A0000023FF2A01D8064601E000F104064FEAC6
:1004B000840501D9A5F12005D6F8008007FA05FCCE
:1004C00028EA0C0803FA05F548EA0508C6F8008092
:1004D0004D68ED005BD5344DAE6946F00106AE6166
:1004E000AD6924F0030605F0010500952F4D06EBDC
:1004F000050CDCF80850A607360F07FA06F825EABF
:100500000805DFF8AC80404503D14FF0000810E04B
:100510003DE0DFF8A080404502D14FF0010808E03F
:10052000DFF89480404502D14FF0020801E04FF01F
:10053000030808FA06F848EA0508CCF808804D6870
:10054000D9F80060ED034D4601D5164300E096430F
:100550002E604D68DAF80060AD03554601D51643AC
:1005600000E096432E604D68DBF80060ED025D46CA
:1005700001D5164300E096432E604D68DEF800601A
:10058000AD02754601D5164300E096432E60641C0B
:100590000A6832FA04F57FF43FAFBDE8F88F000037
:1005A0000004014000001110001002400000014052
:1005B00000080140000C0140001001408068084024
:1005C00000D0012070470AB1016170470904FBE7C0
:1005D00001488068704700000808002070B50400DA
:1005E00025D094F83D00002520B984F83C502046E1
:1005F00000F0B8F8242084F83D002068016821F05C
:10060000010101602068016841F400410160206837
:10061000016821F40041016000F0D0FA4D4A6168A0
:10062000914201D84C4900E04C49884201D2012056
:1006300070BD4B492368B0FBF1F15E6826F03F06C0
:100640000E435E606368934206D94FF49673594334
:100650004FF47A73B1FBF3F12368491C1E6A26F04C
:100660003F06314319626168914210D84900401E2B
:10067000B0FBF1F2521CC2F30B02042A01D2042097
:1006800022E0B0FBF1F0401CC0F30B001CE0A268BC
:10069000F2B301EBC10303EB0116431EB3FBF6F308
:1006A0005B1C43F480431B0549D092B301EBC102AC
:1006B00002EB0111401EB0FBF1F0401CC0F30B0037
:1006C00040F4804040F400402168CA694CF6FF7352
:1006D0009A431043C861D4E90710014320680268B7
:1006E00022F0C00211430160D4E9030101432068F4
:1006F000826848F2FF339A4311438160D4E90501CF
:1007000008432168CA6822F0FF021043C86001E074
:100710000EE016E02068016841F0010101602564E7
:10072000202084F83D00256384F83E50002070BDF1
:1007300001EB4106431EB3FBF6F35B1CB3E701205C
:10074000C2E701EB4101401EB0FBF1F0401CC0F3D9
:100750000B00B7E7A086010080841E0000093D0061
:1007600040420F0010B586B0002100910191029126
:10077000039100680E49884218D10E4CA06940F0E0
:100780000800A061A069694600F008000490C0203C
:100790000090122001900848FFF730FEE06940F415
:1007A0000010E061E06900F40010049006B010BD94
:1007B0000054004000100240000C014002488168D3
:1007C000027811448160704708080020074810B57E
:1007D000016841F010010160032000F067F80F206C
:1007E00000F006F800F024F8002010BD00200240C0
:1007F00070B50D4D04464FF47A712878B1FBF0F0D6
:100800000A490968B1FBF0F000F045FC48B9102C2A
:1008100007D200222146501E00F028F800206C600C
:1008200070BD012070BD00000808002014080020E1
:100830000C4808B5816941F001018161816901F0CD
:1008400001010091C16941F08051C161C06900F0AE
:10085000805000900448416821F0E06141F000714F
:10086000416008BD0010024000000140F0B40E4B92
:100870001B680C46C3F30223C3F10705042D00D9FE
:100880000425191D072901D2002300E0DB1E0126E3
:1008900006FA05F1491E214099409E40761E1640F9
:1008A0003143F0BC01F01AB90CED00E0064900F04C
:1008B000070208684FF6FF03184040EA0220034A87
:1008C00010430860704700000CED00E00000FA05DE
:1008D000014901200862704700000E4210B529A4AA
:1008E00001461DCC86B08DE81D002AA02A4C006868
:1008F00004900020012923D002293AD010291DD1CB
:1009000061682268D20119D5C1F38342C9031DF879
:10091000020009D5616804AAC1F34041515C1F4A35
:10092000B2FBF1F1484301E01D49484361684902C7
:1009300004D440005FF00301B0FBF1F006B010BD3D
:10094000226AC2F30121012903D1920701D5C8030C
:10095000F4E7022905D1626A920702D549F64040C0
:10096000ECE70329EAD121688903E7D54FF2244057
:10097000E4E700F033F96168C1F38131491C4900B3
:10098000DAE7000002030405060708090A0B0C0D4C
:100990000E0F1010010200000010024000127A0039
:1009A00000093D002DE9F84305460078354CC007A5
:1009B00054D0E0690026C00008D4E06940F08050BF
:1009C000E061E069012600F0805000902E48016847
:1009D000C90512D40168804641F480710160FFF7B7
:1009E000F7FD074605E000BFFFF7F2FDC01B6428D6
:1009F00023D8D8F80000C005F6D5206A10F440705E
:100A000021D0A98801F4407181421CD0206A1F497D
:100A1000012220F440700A6000220A602062C007B0
:100A200011D0FFF7D5FD074641F2883808E000BF36
:100A3000FFF7CEFDC11B414502D90320BDE8F88375
:100A4000206A8007F4D5206A696820F44070084362
:100A500020621EB1E06920F08050E06128788007B4
:100A600005D56068A96820F4404008436060287894
:100A7000C00605D56068E96820F48000084360601E
:100A80000020DBE7001002400070004040044242BA
:100A90002DE9F0470F46050061D0434E306800F065
:100AA0000700B84209D2306820F0070038433060B0
:100AB000306800F00700B84251D128683B4C8107EC
:100AC00012D5400703D5606840F4E0606060287884
:100AD000000703D5606840F4605060606068A968F2
:100AE00020F0F000084360602878C00728D06868CC
:100AF000012810D02168022810D0890700292EDA99
:100B0000616821F0030101436160FFF761FD8046E8
:100B100041F288390DE021688903EFE78901EDE7AB
:100B2000FFF756FDA0EB0801494502D90320BDE8B7
:100B3000F0876068696800F00C00B0EB810FEFD1BE
:100B4000306800F00700B8420BD9306820F0070089
:100B500038433060306800F00700B84201D001200F
:100B6000E5E72878400705D56068E96820F4E0608B
:100B7000084360602878000706D56068296920F47A
:100B8000605040EAC100606000F038F86168084ACF
:100B9000C1F30311515CC84006490860064800686B
:100BA000FFF726FE0020C2E70020024000100240AE
:100BB000681F0008140800200C080020044805499C
:100BC00000684968044AC1F30221515CC84070477B
:100BD0001408002000100240781F0008044805494E
:100BE00000684968044AC1F3C221515CC84070479B
:100BF0001408002000100240781F000812A185B0E0
:100C00000FC98DE80F0014A0144A006804905168C1
:100C1000134801F00C03042B10D0082B0ED1C1F3A4
:100C20008343C9031DF803000AD5516804AAC1F320
:100C30004041515C0A4A5043B0FBF1F005B07047A7
:100C400008494843FAE700000203040506070809BB
:100C50000A0B0C0D0E0F10100102000000100240D4
:100C600000127A0000093D002DE9F84F040070D011
:100C70002078C04DC00749D06868C0F381000128C2
:100C800007D06868C0F38100022809D16868C003F2
:100C900006D52868800339D560680028E7D035E09C
:100CA0006068B0F5803F0BD010B1B0F5A02F11D027
:100CB000286820F480302860286820F4802002E032
:100CC000286840F480302860606890B1FFF780FCAD
:100CD00006460AE0286840F480202860F0E700BF5C
:100CE000FFF776FC801B642873D828688003F7D54B
:100CF0000CE0FFF76DFC064605E000BFFFF768FC5F
:100D0000801B6428F0D828688003F7D420789A4E96
:100D100080074FF001094FF0000839D5686810F0DE
:100D20000C0F07D06868C0F38100022809D16868F9
:100D3000C00306D42868800714D52069012808D18B
:100D400010E02069B0B1C6F80090FFF741FC0746FB
:100D500005E00AE1FFF73CFCC01B0228C4D8286864
:100D60008007F7D52868616920F0F80040EAC100E3
:100D700028600DE0C6F80080FFF72AFC074604E073
:100D8000FFF726FCC01B022823D828688007F7D469
:100D9000207800072CD57948A169D9B1C0F8009016
:100DA000FFF716FC074604E0FFF712FCC01B022801
:100DB0000FD8686A8007F7D571484FF4FA51006878
:100DC000B0FBF1F0009000BF0098411E0091FAD2F4
:100DD0000EE080E0C0F80080FFF7FAFB074604E071
:100DE000FFF7F6FBC01B022875D8686A8007F7D4A6
:100DF0002078400760D5E8690027C00008D4E8697A
:100E000040F08050E861E869012700F080500090D0
:100E10005C480168C90513D40168834641F48071B8
:100E20000160FFF7D5FB824606E000BFFFF7D0FB6D
:100E3000A0EB0A0064284ED8DBF80000C005F5D509
:100E4000E06801280AD008B1052813D0286A20F0EC
:100E500001002862286A20F0040002E0286A40F0BD
:100E600001002862E06841F2883B98B1FFF7B0FBCF
:100E700082460BE0286A40F004002862EEE700BFDB
:100E8000FFF7A6FBA0EB0A0159455AD8286A80074C
:100E9000F6D50CE0FFF79CFB824605E0FFF798FBD8
:100EA000A0EB0A0159454CD8286A8007F6D41FB137
:100EB000E86920F08050E861E06988B36968C1F3AF
:100EC0008101022944D00228C6F8608004D0FFF7CF
:100ED0007FFB044638E034E0FFF77AFB074604E086
:100EE000FFF776FBC01B02282BD828688001F7D4B7
:100EF000206AB0F5803F05D16868A16820F4003011
:100F000008436860D4E908010843696821F4741152
:100F100008436860C6F86090FFF75AFB044606E095
:100F200025E000BFFFF754FB001B022809D8286802
:100F30008001F7D51BE000BFFFF74AFB001B02282A
:100F400002D90320BDE8F88F28688001F4D40EE0B0
:100F50000128F7D06868226A00F48031914204D1F8
:100F6000616A00F47010884201D00120EAE7002095
:100F7000E8E70000001002400000424280044242C4
:100F8000140800200070004070B5040003D0607C9D
:100F9000002610B105E0012070BD2674204600F047
:100FA00043F802206074204600F058F8042578BB0E
:100FB000204600F05CFC58BB2068416821F0070126
:100FC0004160A06820B11748016821F0010101606B
:100FD0001448001F0168A26821F460711143016088
:100FE0006068411C04D10120FFF778FC80B1401EED
:100FF00021688A6822F00F0242EA10428A60216862
:10100000CA6860F30F02CA60204600F04BFC08B1CA
:101010006574C0E7E67301206073A07360740020FC
:1010200070BD0000306C004008B500680849884277
:101030000DD1FFF74DFC0748C16941F00061C16166
:10104000C069054900F0006000900120086008BDFB
:1010500000280040001002403C04424270B50400E9
:101060000AD02068416821F008014160FFF7B0FA1A
:1010700005464FF47A7608E0012070BDFFF7A8FA24
:10108000401BB04201D9032070BD206840680007B2
:10109000F4D5002070BD10B5401EB0F1807F01D3A3
:1010A000012010BD4FF0E02460610F21601700F0B7
:1010B00015FD0020A06107202061002010BD70B543
:1010C000040004D094F83D00002510B106E0012092
:1010D00070BD84F83C50204600F022F8242084F8AB
:1010E0003D002068C16821F40051C160204600F035
:1010F0005DFC2068016921F490410161206841692B
:1011000021F02A0141612068C16841F40051C160A9
:101110002564202084F83D0084F83E00002070BD46
:1011200030B585B0002400940194029403940068C3
:101130001449884224D11448816941F48041816175
:10114000816901F480410491816941F00401816168
:1011500080690E4D00F0040004904FF40070009080
:10116000022001900320039069462846FFF746F9C4
:101170002815CDE90004694628460294FFF73EF998
:1011800005B030BD003801400010024000080140A9
:101190002DE9F843044690F83D001F4616460D46DB
:1011A00020284CD1C5B1BEB194F83C00012846D0EE
:1011B000012084F83C004FF00008C4F84080212052
:1011C00084F83D00FFF704FAA6848146E684A0680F
:1011D000B0F5805F03D004E00120BDE8F88320690A
:1011E00028B12E465FF0000584F83C800EE0002612
:1011F000FAE78021204600F035FCA0B9AEB116F820
:10120000010B21684860E08C401EE084E08C4B4676
:101210004FF0000200970028EBD14FF0400120462C
:1012200000F020FC30B10320D7E735F8020BC0F303
:101230000800E6E7202084F83D000020CDE70220EA
:10124000CBE7FEE710B50E4C012202212046FFF746
:10125000BAF9012211462046FFF7B5F900F046F829
:10126000002202212046FFF7AEF900F03FF80022ED
:1012700001212046FFF7A7F9BDE8104000F036B87D
:101280000008014010B50A4C002202212046FFF759
:101290009AF9012211462046FFF795F900F026F849
:1012A00020460122BDE810400221FFF78CB9000062
:1012B0000008014010B50C4C012202212046FFF726
:1012C00082F900F013F8012211462046FFF77BF95E
:1012D00000F00CF8002201212046FFF774F9BDE868
:1012E000104000F003B80000000801400120401E3B
:1012F000C0B2FCD270470000F0B585B000241B4896
:101300000094019402940394816941F00401816185
:10131000816901F004010491816941F00801816152
:101320008069134F00F0080004900022072138461E
:10133000FFF749F907200126CDE900060225694695
:101340003846CDE90245FFF759F8F8208DE831001D
:1013500069463846FFF752F8009669460548CDE9D8
:101360000145FFF74BF805B0F0BD0000001002404A
:1013700000080140000C01400D4810B50B49016008
:101380000C49416000214FF480428160C0E90312A2
:1013900041618161C1610162FFF720F9002803D03A
:1013A000BDE81040FFF716B810BD00000054004023
:1013B00010090020A08601000A4810B50849016004
:1013C0004FF0FF3141604FF480718160FFF7DCFD29
:1013D000002803D0BDE81040FEF7FCBF10BD0000A0
:1013E00000280040640900200C4810B50A4901603B
:1013F0004FF4E1314160002181600C22C160C0E9FD
:1014000004128161C161FFF75AFE002803D0BDE8D4
:101410001040FEF7DFBF10BD003801407809002002
:10142000FEE7FEE730B40021084B0A465FF00000FB
:1014300003EBC004401CC0B262548028F8D3491C9E
:10144000C9B20829F2D330BC00F0CAB8BC090020E8
:1014500030B1012807D100215FF0A70000F0EBB9FF
:101460000021A620FAE7704710B558B1012810D125
:101470000021C02000F0DFF90021A020BDE81040CD
:1014800000F0D9B90021C82000F0D5F90021A12031
:10149000F4E710BD30B5CC0801F0070301259D40ED
:1014A000EBB2064D05EBC005C808285C0AB118432D
:1014B00002E063EA0000C043285530BDBC090020AB
:1014C00010B5424C012211462046FFF77CF801225C
:1014D00002212046FFF777F8002204212046FFF77B
:1014E00072F8C820FEF778FF012204212046FFF79A
:1014F0006AF80021AE2000F09EF90021084600F0B5
:101500009AF90021102000F096F90021402000F007
:1015100092F90021812000F08EF90021CF2000F007
:101520008AF90021A12000F086F90021C82000F0EE
:1015300082F90021A62000F07EF90021A82000F009
:101540007AF900213F2000F076F90021D32000F045
:1015500072F90021084600F06EF90021D52000F054
:101560006AF90021802000F066F90021D92000F0FE
:1015700062F90021F12000F05EF90021DA2000F08C
:101580005AF90021122000F056F90021DB2000F06A
:1015900052F90021302000F04EF90021202000F007
:1015A0004AF90021022000F046F900218D2000F0C8
:1015B00042F90021142000F03EF9FFF733FF00212B
:1015C000BDE81040AF2000F036B90000000801402F
:1015D0000246012000E05043491EC9B2FBD27047C9
:1015E00070B5184E002400BF04F1B000C0B2002155
:1015F00000F021F90021084600F01DF9002110201B
:1016000000F019F9FFF71EFE782000F067F9FFF7E8
:1016100051FE402000F062F9FFF74CFE5FF000053C
:1016200006EBC500005D00F059F9FFF743FE6D1CA5
:10163000EDB2802DF4D3FFF725FE641CE4B2082C34
:10164000D2D370BDBC0900202DE9FC4F1C460E46CC
:1016500082468B460190082B0DD0600700D00120F8
:1016600000EBD40061084843C0B28146203AD0B2B2
:10167000009000204BE00620F7E7082C13D00C2C3C
:1016800018D0102C1BD0182C44D10098234900EB03
:10169000C00000BF01EB8001002711F80850E807E7
:1016A00012D00B9A13E000981D4900EB400001EBAB
:1016B0004001F1E700981B4900EB4000EAE71A49B6
:1016C000009801EB0011E7E70B9828B300223146A0
:1016D0005046FFF7DFFE761C7F1C6D08FFB2F6B2A6
:1016E000082FDCD30AF1010000F0FF0A082C0AD011
:1016F0000199AAEB0100B0EB540F04D10BF10800E3
:101700008A4600F0FF0B08F101005E46C0B2804639
:101710004845B2D3BDE8FC8F0122D8E70C2C000865
:10172000801F0008A82100081C2600082DE9F84F9A
:101730000025DDE90A691F4692468B468046082E41
:1017400000D1022500241CE0381B401EC1B20A2033
:10175000FFF73EFFBAFBF0F00A21B0FBF1F201FB0C
:101760001200CDF8009080B13030C2B205EB5601C6
:1017700001FB0480C0B233465946FFF765FF641C85
:10178000E4B2BC42E0D3BDE8F88F05EB560101FBA3
:101790000480C0B233463022EEE72DE9FF4F82B01D
:1017A0008046019092460C464FF000098B46580740
:1017B00000D0012000EBD3000590002032E000268D
:1017C0002BE00F98002510F8097009F101001FFAAD
:1017D00080F9F80701D0109A02E0109848B300226F
:1017E00021464046FFF756FE641C6D1C7F08EDB293
:1017F000E4B2082DEDD308F10100019900F0FF08D3
:10180000A8EB0101514505D10BF10800DDF804807A
:1018100000F0FF0B761C5C46F6B25645D1D300981B
:10182000401CC0B2009005998842C8D306B0BDE8FC
:10183000F08F0122D4E770B50C460546FFF702FD94
:10184000782000F04BF8FFF735FD0CB1402000E0A8
:10185000002000F043F8FFF72DFD284600F03EF889
:10186000FFF728FDBDE87040FFF70CBD704770B56D
:101870000446FEF7ADFE05464FF47A7606E0FEF725
:10188000A7FE401BB04201D9032070BD206840680C
:101890008006F4D52068416841F0100141600020C5
:1018A00070BD000070B504460068416821F0100169
:1018B0004160FEF78DFE05464FF47A7607E000BFE3
:1018C000FEF786FE401BB04201D9032070BD2068A0
:1018D00040688006F4D5002070BD704770B5104E8A
:1018E00005460024280601D5012200E0002202213D
:1018F0003046FEF768FEFFF7F9FC0122114630463C
:10190000FEF761FEFFF7F2FC002201213046FEF7F0
:101910005AFE6806641C050EE4B2082CE2D370BDC2
:1019200000080140FEF74ABF30B593B02821684651
:10193000FEF7FFFB14210AA8FEF7FBFB00240F941F
:101940000A2000900120109411940225CDE906058B
:101950001021CDE9040112944FF46010CDE9084044
:101960006846FFF781F908B172B6FEE70F20CDE9AE
:101970000A054FF48060CDE90C4002210AA80E94BC
:10198000FFF786F808B172B6FEE711200F904FF40A
:1019900000701090400312900FA8FFF703F8002882
:1019A00001D072B6FEE713B030BD704770B5044683
:1019B00000680169E26821F4405111430161216925
:1019C000A0680843616908432168CA6841F20C6352
:1019D0009A430243CA6020684169A26921F44071B8
:1019E000114341611E492068884202D1FFF7F6F891
:1019F00001E0FFF7E3F800EBC00101EB00126068C3
:101A000064218000B2FBF0F3B3FBF1F36FF0180632
:101A10007343B2FBF0F5B2FBF0F605EB830532231E
:101A200003EB0515B5FBF1F5B6FBF1F605F0F00596
:101A300005EB0615B2FBF0F6B2FBF0F0B0FBF1F0EF
:101A40006FF01802504306EB800003EB0010B0FB70
:101A5000F1F0216800F00F002844886070BD00009C
:101A6000003801402DE9F041984617460E460446DD
:101A7000069D1DE0681C1BD02DB1FEF7A9FDA0EB53
:101A80000800A84214D92068C16821F4D071C1604F
:101A90002068416921F001014161202084F83D0066
:101AA00084F83E00002084F83C000320BDE8F0816B
:101AB0002068006836EA000004D00020B842D9D07F
:101AC0000020F3E70120F9E7FEE70000014A0249A0
:101AD00000F023B8651D00081C0800200907090E46
:101AE000002804DB00F1E02080F80014704700F0CB
:101AF0000F0000F1E02080F8141D704702E008C8D4
:101B0000121F08C1002AFAD170477047002001E077
:101B100001C1121F002AFBD170472DE9F041164682
:101B20000F460446002503E03946B047641C6D1C8F
:101B300020780028F8D12846BDE8F08100EB81002C
:101B40008260704770B5044640688047E1784A0774
:101B500002D02288521C2280B0EBD11F0CD04FF053
:101B6000005202EBB1114FEAB161C1F3C202E17060
:101B7000032A04D360F3C71121F03800E070E07845
:101B8000002500F0070106291ED2DFE801F0031E40
:101B9000407B1D98C0F38011B1EBD01FA07820F0DE
:101BA000F0000FD1A070A16809B1204688472580B8
:101BB000A07820F00F00401CA070E07820F0070013
:101BC000401C11E08030A07070BDC0F38011B1EBFB
:101BD000D01F0BD0A07820F0F0001030A070E1688A
:101BE000A1B3204688475EE0E07070BD2088C82819
:101BF000FBD9A07820F0F0005030A070E16909B165
:101C000020468847E07820F00700401DECE7C0F34D
:101C10008011B1EBD01F1AD1A07820F0F000A07095
:101C2000A16809B120468847A0784FF0805101EBA8
:101C300030104FEA3070A070216909B12046884702
:101C40002580E07820F00700C01CCDE72BE020883D
:101C50003C28CAD9A07800F00F01012902D002293E
:101C600006D00DE020F0F0003030A070616904E093
:101C700020F0F0004030A070A16909B120468847EB
:101C8000E07819E0C0F38011B1EBD01F11D0A0783B
:101C900020F0F0001030A070E16809B120468847BC
:101CA00020883C28ECD22580E07820F00700801CBA
:101CB0009AE721883C2998D920F0070094E7C0F3DF
:101CC0008011B1EBD01FA07820F0F00010D160306F
:101CD000A07020886421B0FBF1F201FB1200002803
:101CE00083D1216A002980D02046BDE87040084792
:101CF0001030A070E168C0E770B50D461646044686
:101D00002821FEF716FAA07820F0F0008030A070AD
:101D10006560A8470146E07861F3C71066F3861056
:101D2000E07070BD074A11680B4605E0814202D1A0
:101D30004FF0FF307047496A0029F7D143621060C5
:101D40000020704718080020054810B5046803E01B
:101D50002046FFF7F7FE646A002CF9D110BD0000A1
:101D60001808002038B504468DF80000022301222F
:101D700069460248FFF70CFA204638BD7809002072
:101D80001CB5FEF723FDFFF7CFFDFFF7B5FAFFF710
:101D9000F3FAFFF711FBFFF727FBFFF791FB00209A
:101DA000FFF756FB0020FFF75FFB01224849494837
:101DB000FFF7A2FF4748012247492830FFF79CFF61
:101DC0004448012245495030FFF796FF414801221F
:101DD00043497830FFF790FF3E4801224149A03047
:101DE000FFF78AFF3B4801223F49C830FFF784FFD5
:101DF0003E4A00213748FFF7A1FE3D4A0121354800
:101E0000FFF79CFE33483B4A00212830FFF796FE3F
:101E10003048394A01212830FFF790FE2D48374AD3
:101E200000215030FFF78AFE2A48354A0121503000
:101E3000FFF784FE2748334A00217830FFF77EFE03
:101E40002448314A01217830FFF778FE21482F4A93
:101E50000021A030FFF772FE1E482D4A0121A0305C
:101E6000FFF76CFE1B482B4A0021C830FFF766FEC7
:101E70001848294A0121C830FFF760FE1548FFF7CE
:101E800051FF14482830FFF74DFF12485030FFF73C
:101E900049FF10487830FFF745FF0E48A030FFF7A4
:101EA00041FF0C48C830FFF73DFF00251B4C1826AA
:101EB000FFF74AFF62680021521C6260CDE90065AD
:101EC0000A230846FFF732FCFFF78AFBF0E7000021
:101ED000211F0008200800202D1F0008391F0008BE
:101EE000451F0008511F00085D1F0008C5010008BC
:101EF00001020008190200085902000871020008D6
:101F0000B1020008C9020008090300082103000803
:101F10006103000879030008B903000800000020ED
:101F200008210148FEF74ABB000801401021014882
:101F3000FEF744BB0008014020210148FEF73EBBEC
:101F40000008014040210148FEF738BB000801406D
:101F500080210148FEF732BB000801400121014801
:101F6000FEF72CBB000C0140000000000000000048
:101F7000010203040607080900000000010203042F
:101F80000000000000000000002F0000000007001B
:101F9000070000147F147F1400242A7F2A12006295
:101FA0006408132300364955225000000503000041
:101FB00000001C224100000041221C000014083EC9
:101FC00008140008083E0808000000A0600000088F
:101FD00008080808000060600000002010080402E3
:101FE000003E5149453E0000427F400000426151A1
:101FF0004946002141454B31001814127F1000273B
:1020000045454539003C4A494930000171090503FD
:1020100000364949493600064949291E000036362E
:102020000000000056360000000814224100001491
:10203000141414140000412214080002015109066E
:1020400000324959513E007C1211127C007F4949EF
:102050004936003E41414122007F4141221C007F20
:1020600049494941007F09090901003E4149497A2E
:10207000007F0808087F0000417F410000204041A8
:102080003F01007F08142241007F40404040007F14
:10209000020C027F007F0408107F003E4141413E58
:1020A000007F09090906003E4151215E007F0919A0
:1020B00029460046494949310001017F0101003F9D
:1020C0004040403F001F2040201F003F4038403F1D
:1020D0000063140814630007087008070061514981
:1020E000454300007F41410000552A552A55000014
:1020F00041417F0000040201020400404040404092
:10210000000001020400002054545478007F484429
:10211000443800384444442000384444487F003860
:102120005454541800087E0901020018A4A4A47C89
:10213000007F080404780000447D40000040808453
:102140007D00007F102844000000417F4000007C9B
:1021500004180478007C08040478003844444438A7
:1021600000FC242424180018242418FC007C0804F3
:10217000040800485454542000043F444020003CCC
:102180004040207C001C2040201C003C4030403C53
:10219000004428102844001CA0A0A07C00446454E3
:1021A0004C44141414141414000000000000000027
:1021B000000000000000FC00000000000200000021
:1021C000000C020C020000000000000090D0BCD007
:1021D000BC900003000300001824FE448C0003029E
:1021E000070201001824D8B04C800003000102014E
:1021F000C038E438E00001020201020208060000D3
:102200000000000000000000000000F804020000D0
:1022100000010204000204F80000000402010000B2
:102220009060F86090000000010000002020FC2079
:10223000200000000100000000000000000008066F
:1022400000000000202020202000000000000000EE
:102250000000000000000002000000000080601C80
:102260000200040300000000F8040404F800010266
:10227000020201000008FC0000000002030200004E
:1022800018844424180003020202020008042424D3
:10229000D80001020202010040B088FC800000006A
:1022A000000302003C242424C400010202020100B5
:1022B000F824242CC0000102020201000C04E41CDA
:1022C0000400000003000000D8242424D8000102E8
:1022D0000202010038444444F800000302020100F5
:1022E00000001000000000000200000000002000BC
:1022F00000000000060000000020508804020000DA
:1023000000000102909090909000000000000000FA
:102310000002048850200002010000001804C424B8
:102320001800000002000000F804E494F800010224
:102330000202020000E09CF08000020300000302A1
:1023400004FC2424D800020302020100F80404045F
:102350000C0001020202010004FC0404F800020364
:102360000202010004FC24740C00020302020300B8
:1023700004FC24740C00020302000000F008044472
:10238000CC4000010202010004FC2020FC040203F6
:10239000000003020404FC04040002020302020021
:1023A000000404FC040406040403000004FC24D01C
:1023B0000C0402030200030204FC040000000203F8
:1023C00002020203FC3CC03CFC00030003000300CB
:1023D00004FC30C4FC04020302000300F8040404FB
:1023E000F80001020202010004FC24241800020388
:1023F00002000000F8848404F800010202070500CE
:1024000004FC2464980002030200030218242444FC
:102410008C000302020201000C04FC040C00000208
:102420000302000004FC0000FC04000102020100A1
:10243000047C80E01C040000030000001CE03CE081
:102440001C00000300030000049C609C04000203C5
:1024500000030200041CE01C040000020302000050
:102460000C84641C04000203020203000000FE024C
:102470000200000007040400000E30C0000000004D
:1024800000010200000202FE000000040407000038
:102490000004020400000000000000000000000032
:1024A00000000808080808080000020000000000FA
:1024B000000000000040A0A0C000000102020302D2
:1024C00004FC2020C00000030202010000C0202004
:1024D000600000010202020000C02024FC00000194
:1024E0000202030200C0A0A0C0000001020202001C
:1024F0000020F82424040002030202000040A0A0EF
:10250000602000070A0A0A0404FC2020C00002031D
:10251000020003020020E4000000000203020000A9
:10252000000020E4000008080807000004FC80E028
:1025300020200203020003020404FC000000020247
:1025400003020200E020E020C000030003000300BB
:1025500020E02020C00002030200030200C020206F
:10256000C00000010202010020E02020C000080F8E
:102570000A02010000C02020E0000001020A0F084A
:1025800020E0402020000203020000000060A0A024
:1025900020000002020203000020F82000000000DA
:1025A0000102020020E00020E0000001020203021C
:1025B00020E0208060200000030100006080E080B7
:1025C0006000000300030000206080602000020320
:1025D0000003020020E020806020080807010000BE
:1025E0000020A0602000000203020200000020DEA4
:1025F0000200000000070400000000FF00000000CF
:10260000000F00000002DE200000000407000000B0
:1026100002010204040200000000000000000000AB
:10262000000000000000000000000000000000F8B2
:1026300000000000000000333000000000100C0615
:10264000100C0600000000000000000040C07840B0
:10265000C0784000043F04043F040400007088FC7C
:1026600008300000001820FF211E0000F008F000D4
:10267000E018000000211C031E211E0000F0088845
:10268000700000001E2123241927211010160E00AF
:10269000000000000000000000000000000000E05A
:1026A000180402000000000718204000000204186F
:1026B000E00000000040201807000000404080F0CB
:1026C000804040000202010F01020200000000F001
:1026D000000000000101011F0101010000000000D5
:1026E0000000000080B0700000000000000000004A
:1026F00000000000000101010101010100000000D3
:102700000000000000303000000000000000000069
:1027100080601804006018060100000000E0100846
:102720000810E000000F102020100F00001010F81B
:10273000000000000020203F20200000007008085A
:1027400008887000003028242221300000300888DA
:10275000884830000018202020110E000000C02002
:1027600010F8000000070424243F240000F8088823
:10277000880808000019212020110E0000E01088B0
:1027800088180000000F112020110E0000380808E2
:10279000C83808000000003F0000000000708808F2
:1027A00008887000001C222121221C0000E0100873
:1027B0000810E0000000312222110F00000000C0CC
:1027C000C000000000000030300000000000008069
:1027D0000000000000008060000000000000804059
:1027E0002010080000010204081020004040404072
:1027F00040404000040404040404040000081020C5
:102800004080000000201008040201000070480809
:102810000808F0000000003036010000C030C82871
:10282000E810E0000718272423140B000000C0382C
:10283000E0000000203C23020227382008F88888A6
:1028400088700000203F202020110E00C0300808B2
:1028500008083800071820202010080008F8080889
:102860000810E000203F202020100F0008F8888882
:10287000E8081000203F20202320180008F888884E
:10288000E8081000203F200003000000C0300808C6
:102890000838000007182020221E020008F808004F
:1028A0000008F808203F210101213F20000808F816
:1028B000080800000020203F202000000000080839
:1028C000F8080800C08080807F00000008F888C0F9
:1028D00028180800203F20012638200008F80800AA
:1028E00000000000203F20202020300008F8F800E1
:1028F000F8F80800203F003F003F200008F830C0F3
:102900000008F808203F200007183F00E0100808E2
:102910000810E0000F10202020100F0008F8080811
:102920000808F000203F210101010000E010080824
:102930000810E0000F18242438504F0008F8888849
:1029400088887000203F2000030C30200070880829
:10295000080838000038202121221C00180808F837
:10296000080818000000203F2000000008F80800B8
:102970000008F808001F202020201F000878880089
:1029800000C83808000007380E010000F80800F8F9
:102990000008F800033C0700073C030008186880A3
:1029A0008068180820302C03032C30200838C80019
:1029B000C83808000000203F200000001008080868
:1029C000C83808002038262120201800000000FE0A
:1029D000020202000000007F40404000000C30C0B6
:1029E00000000000000000010638C00000020202E2
:1029F000FE000000004040407F0000000000040294
:102A000002020400000000000000000000000000BE
:102A100000000000808080808080808000020204AE
:102A200000000000000000000000000000008080A6
:102A3000808000000019242222223F2008F8008014
:102A400080000000003F112020110E0000000080D7
:102A500080800000000E1120202011000000008066
:102A60008088F800000E112020103F200000808098
:102A700080800000001F222222221300008080F0AC
:102A8000888888180020203F2020000000008080D7
:102A900080808000006B94949493600008F800801C
:102AA00080800000203F210000203F200080989877
:102AB000000000000020203F2020000000000080D7
:102AC0009898000000C08080807F000008F8000017
:102AD00080808000203F24022D302000000808F86C
:102AE000000000000020203F202000008080808027
:102AF00080808000203F20003F20003F80800080B9
:102B000080800000203F210000203F2000008080C6
:102B100080800000001F202020201F008080008077
:102B20008000000080FFA12020110E000000008026
:102B300080808000000E112020A0FF808080800017
:102B40008080800020203F21200001000000808044
:102B5000808080000033242424241900008080E039
:102B6000808000000000001F202000008080000006
:102B700000808000001F202020103F2080808000E7
:102B80000080808000010E300806010080800080F7
:102B9000008080800F300C030C300F00008080001C
:102BA000808080000020312E0E3120008080800047
:102BB0000080808080818E701806010000808080F7
:102BC000808080000021302C222130000000000095
:102BD000807C020200000000003F40400000000036
:102BE000FF00000000000000FF0000000002027C67
:102BF000800000000040403F00000000000601018E
:102C000002020404000000000000000000000000B8
:102C100000000000000000000000000000000000B4
:102C200000000000000000000000000000000000A4
:102C30000000000000F0F0F00000000000000000C4
:102C400000017F010000000000000000001C1C1CAF
:102C50000000000000008060301C8C60301C0C0004
:102C60000000000000000000000000000000000064
:102C70000000000000000000000000E00000000074
:102C800000E000000086E69F86868686E69F860036
:102C900000011F01010101011F010100000080C0AE
:102CA0006020F820E0C00000000003070C18FF704F
:102CB000E18100000000070F10107F100F070000D7
:102CC0008060206080000000E02000000F30203095
:102CD0009F70DC371030C0000000100E0300071892
:102CE000101807000000C02020E0C0000000000015
:102CF00080E01F38E88703C43C040000070F181069
:102D0000100B070D1010080000808C4C38000000DC
:102D100000000000000000000000000000000000B3
:102D200000000000000000000000000000000000A3
:102D3000000080E0300804000000000000FEFF01F9
:102D400000000000000000000000030F18204000F9
:102D500000040830E08000000000000000000000D7
:102D600001FFFE0000000000004020180F030000DB
:102D700000000000000000000000C0000000000093
:102D8000004266663C18FF183C6666420000000080
:102D900000000300000000000000000000008000B0
:102DA00000000000001010101010FF101010101084
:102DB0000000000000000300000000000000000010
:102DC0000000000000000000000000000000000003
:102DD0000000000000808C4C380000000000000063
:102DE00000000000000000000000000000101010B3
:102DF0001010101010101000000000000000000063
:102E000000000000000000000000000000000000C2
:102E100000000000000000000000000000001C1C7A
:102E20001C00000000000000000000000000000086
:102E3000E0380C000000000080701C03000000005F
:102E40000060380E0100000000000000000080C09B
:102E500060202060C080000000FEFF010000000034
:102E600001FFFE000001070E181010180E070100E8
:102E70000000808080C0E000000000000000000032
:102E800000FFFF000000000000001010101F1F10C6
:102E9000101000000080402020202060C080000032
:102EA00000030300804020381F070000001C1A198F
:102EB00018181818181F00000080C020202060C0BB
:102EC00080000000000303001010182FE7800000AE
:102ED00000070F10101010180F070000000000006E
:102EE0000000C0E0F000000000C0B088868180FFD4
:102EF000FF808000000000000010101F1F10100055
:102F00000000E060606060606060000000003F10F2
:102F100008080818F0E0000000070B101010101C43
:102F20000F030000000080C040202020E0C000000F
:102F300000FCFF211008080818F0E0000001070C51
:102F400018101010080F03000000C0E060606060FF
:102F500060E06000000003000000E01807000000CF
:102F600000000000001F1F00000000000080C06083
:102F70002020202060C080000087EF2C18183030FF
:102F800068CF830000070F0810101010180F0700FB
:102F90000000C0C020202020C0800000001F3F6033
:102FA0004040402010FFFE0000000C1C10101008D4
:102FB0000F030000000000000000000000000000FF
:102FC00000000000000E0E0E0000000000000000D7
:102FD000001C1C1C0000000000000000000000009D
:102FE0000000000000000000000C0C0000000000C9
:102FF0000000000000583800000000000000000041
:1030000000000080402010000000102844820100D1
:103010000000000000000000000001020408100091
:103020000000000000000000000000000084848414
:1030300084848484848484000000000000000000F4
:103040000000000000001020408000000000000090
:103050000000000000000182442810000000100859
:10306000040201000000000000C020201010101019
:1030700030E0C0000003030000F010080C0703005C
:10308000000000001C1C1C0000000000000000C02C
:10309000406020202040C00000FCFF01F00E03C172
:1030A000FE03807F0001070E0811111011090402B0
:1030B0000000000080E0E000000000000000807CD4
:1030C0004340477FF880000010181F1000000000E8
:1030D000131F1C1020E0E02020202060C080000092
:1030E00000FFFF10101010182FE78000101F1F1096
:1030F00010101010180F0700000080C04020202082
:103100002060E00000FCFF01000000000000010062
:103110000001070E181010100804030020E0E02042
:1031200020202040C080000000FFFF0000000000C1
:1031300001FFFE00101F1F10101018080E070100DD
:1031400020E0E020202020202060800000FFFF10F1
:103150001010107C00000000101F1F101010101025
:103160001018060020E0E020202020206060800071
:1031700000FFFF101010107C00000100101F1F1036
:103180000000000000000000000080C0602020203F
:1031900040E0000000FCFF0100004040C0C1404092
:1031A0000001070E181010100F0F000020E0E020A3
:1031B0000000000020E0E02000FFFF1010101010C1
:1031C00010FFFF00101F1F1000000000101F1F1035
:1031D0000000202020E0E02020200000000000006F
:1031E00000FFFF000000000000001010101F1F1063
:1031F0001010000000000000202020E0E02020202F
:1032000000000000000000FFFF0000000060E08000
:103210008080C07F3F00000020E0E020000020A070
:103220006020200000FFFF30187CE3C00000000099
:10323000101F1F10000001131F1C181020E0E020B9
:10324000000000000000000000FFFF000000000080
:1032500000000000101F1F101010101010180600A2
:1032600020E0E0E000000000E0E0E02000FF013F9F
:10327000FEC0E01E01FFFF00101F1000031F03002F
:10328000101F1F1020E0E0C0000000000020E02020
:1032900000FF0003071C78E08000FF00101F1000F3
:1032A00000000000030F1F00000080C060202060AD
:1032B000C080000000FEFF010000000000FFFE00D3
:1032C0000001070E181010180C07010020E0E02084
:1032D0002020202060C0800000FFFF202020202030
:1032E000301F0F00101F1F10000000000000000022
:1032F000000080C060202060C080000000FEFF0150
:103300000000000000FFFE000001070E1111133C39
:103310007C67210020E0E0202020202060C0800089
:1033200000FFFF101030F0D0080F0700101F1F1013
:10333000000000030F1C10100080C060202020201F
:103340004040E00000070F0C1818303060E08100AA
:10335000001F0C0810101010180F070080602020AC
:1033600020E0E020202060800100000000FFFF003E
:103370000000000100000000101F1F1000000000EE
:1033800020E0E020000000000020E02000FFFF001F
:10339000000000000000FF0000070F1810101010C0
:1033A000100807002060E0E02000000020E060201E
:1033B0000000077FF88000807C0300000000000010
:1033C000071F1C070000000020E0E02000E0E020D4
:1033D0000020E0200007FFF8E01FFFFCE01F0000D6
:1033E0000000031F0300011F03000000002060E035
:1033F000A0000020E0602000000000038F7CF8C6E1
:10340000010000000010181E130001171F18100003
:103410002060E0E02000000020E0602000000107C4
:103420003EF8E0180700000000000010101F1F10F9
:103430001000000000806020202020A0E0E020009C
:1034400000000000C0F03E0F0300000000101C1F31
:1034500017101010101806000000000000FC0404F3
:10346000040404000000000000FF00000000000051
:1034700000000000007F404040404000000010E09D
:10348000000000000000000000000000031C60803D
:103490000000000000000000000000030C7080002D
:1034A00000000404040404FC00000000000000000C
:1034B000000000FF00000000000040404040407F4E
:1034C0000000000000000010080C040C08100000B0
:1034D00000000000000000000000000000000000EC
:1034E00000000000000000000000000000000000DC
:1034F00000000000000000000000000000000000CC
:1035000080808080808080808080808000000004B7
:103510000408080000000000000000000000000097
:10352000000000000000000000000000000000009B
:10353000000000000000000000000000000098D81B
:1035400044642424FCF80000000F1F181010100819
:103550001F1F10180020E0F0000000000000000015
:103560000000FFFF180804040CF8F00000001F0F13
:1035700018101010180F03000000000000000000D9
:103580000000000000E0F8180404043C38000000CB
:1035900000030F0C101010100806000000000000BF
:1035A00000000020E0F0000000E0F81C0404040823
:1035B000FFFF000000030F18101010081F0F080075
:1035C0000000000000000000000000000000E0F823
:1035D000484444444C7870000000030F0C1810104D
:1035E000100804000000000080C0602020E0C0003F
:1035F00000040404FFFF0404040400000000101091
:103600001F1F10101000000000000000000000004C
:1036100000000000000070F88C04048CF874040CA6
:10362000007076CF8D8D8D89C87870000020E0F015
:1036300000000000000000000000FFFF0804040478
:10364000FCF8000000101F1F100000101F1F1000CA
:1036500000000000006060000000000000000404A2
:1036600004FCFC000000000000001010101F1F10E0
:10367000101000000000000000000060600000006A
:1036800000000000040404FCFC0000000000C0C0B6
:103690008080C07F3F0000000020E0F000000000BC
:1036A000000000000000FFFF80C0F41C04040000C4
:1036B00000101F1F1100031F1C101000000020200D
:1036C00020E0F000000000000000000000FFFF000C
:1036D0000000000000001010101F1F10101000004C
:1036E00000000000000000000000000004FCFC08D6
:1036F00004FCFC0804FCFC00101F1F10001F1F101E
:10370000001F1F100000000000000000000000006B
:103710000004FCFC08080404FCF8000000101F1F53
:10372000100000101F1F100000000000000000002B
:103730000000000000E0F0180C04040C18F0E00099
:1037400000030F0C101010100C0F030000000000FD
:1037500000000000000000000004FCFC0804040459
:103760000CF8F0000080FFFF889010101C0F030081
:1037700000000000000000000000000000E0F81C55
:1037800004040408F8FC000000030F1810109088CF
:10379000FFFF8000000000000000000000000000AB
:1037A000040404FCFC100804040C0C001010101F8E
:1037B0001F101010000000000000000000000000BA
:1037C0000000000000003078CCC48484840C1C000D
:1037D00000001E1810101011190F06000000000044
:1037E00000C000000000000000040404FFFF040407
:1037F00004000000000000000F1F1010100C00005B
:103800000000000000000000000000000004FCFEBA
:1038100000000004FCFE000000000F1F181010083C
:103820001F0F080000000000000000000000000062
:1038300000040C3CFCC40000C43C0C04000000006C
:10384000010F1E0E0100000000000000000000003B
:1038500000000000043CFCC400E47CFC84807C0488
:103860000000071F070000071F07000000000000FE
:1038700000000000000000000004041C7CE4C034D0
:103880001C0404000010101C1601131F1C1810004B
:1038900000000000000000000000000000040C3CDC
:1038A000FCC400C43C0404000000C080C1370E0109
:1038B0000000000000000000000000000000000008
:1038C00000001C0404C4F47C1C0400000000101C54
:1038D0001F17111010180E0000000000000000F863
:1038E0000C04000000000000001028EF00000000A1
:1038F000000000000000003F6040000000000000E9
:103900000000FF0000000000000000000000FF00B9
:1039100000000000000000000000FF0000000000A8
:103920000000040CF800000000000000000000008F
:10393000EF28100000000000000040603F00000081
:1039400000000000001806020204081020203008C1
:103950000000000000000000000000000000000067
:1039600000000000000000000000F010101010FF28
:1039700010101010F000000000000F04040404FFF9
:10398000040404040F0000004040405F5555557585
:103990005555555F404040000040200F0949897946
:1039A0000909090F2040000000FE02424ACA4A4AA3
:1039B000CA4A4A4202FE000000FF40504C434040C9
:1039C0004F50505C40FF00000000F888888888FF56
:1039D00088888888F800000000001F080808087F11
:1039E000888888889F80F00080828282828282E23A
:1039F000A2928A8682808000000000000040807FC2
:103A00000000000000000000101010FF1090088857
:103A10008888FF88888808000444827F018080406D
:103A2000432C1028468180000010101010D030FF69
:103A300030D0121C1010000010080402010000FF1A
:103A4000000001020408100004040484E43C27245C
:103A5000242424E40404040004020100FF090909E9
:103A60000949897F0000000000FE225A8600FE926C
:103A700092929292FE00000000FF04080700FF40AF
:103A800020030C14224140000080402018068000D2
:103A90000718204080000000010020702826212007
:103AA000202438600001010000101292929292923C
:103AB00092121202FE0000000000003F10101010D1
:103AC0003F0040807F000000000000C080808080B8
:103AD000808080FC84808080808080C0C000000066
:103AE000000000FF7F404040404040FF40404040D9
:103AF000404040FF7F000000000000000000000088
:103B00000000007F700000000000000000000000C6
:103B1000000000000000000000000000000000FCA9
:103B2000F80000000000000000000000000000009D
:103B300000000000FFFE020202020202020202FF77
:103B4000FF020202020202020202FF030000000062
:103B5000000000001F1F040404040404040404FF04
:103B6000FF0404040404040404041F000000000013
:103B70000000000000000000000000000000007FC6
:103B80003F000000000000000000000000000000F6
:103B90000000000000000000000000000000000025
:103BA00000000000000000000000000000F8F8F035
:103BB000F070200000000000000000000000000085
:103BC00000000000000000000000000000000000F5
:103BD0000000000000000000800000000000000065
:103BE00000000000000000000000000000FFFFFFD8
:103BF000FF000000000000000000000000000000C6
:103C000000000000808000000000000000000000B4
:103C1000000000000000000000FFFFFE0606060690
:103C200006060606060606060606060606FFFFFF49
:103C3000FF0606060606060606060606060606062B
:103C4000060606FFFFFFFF0702000000000000005D
:103C5000000000000000000000FFFFFF0000000067
:103C600000000000000000000000000000FFFFFF57
:103C7000FF00000000000000000000000000000045
:103C8000000000FFFFFFFF00000000000000000038
:103C9000000000000000000000FFFFFF18181818C7
:103CA00018181818181818181818181818FFFFFFDF
:103CB000FF1818181818181818181818181818189D
:103CC000181818FFFFFFFF000000000000000000B0
:103CD00000000000000000000201010000000000E0
:103CE00000000000000000000000000000FFFFFFD7
:103CF000FF000000000000000000000000000000C5
:103D000000000001010000000000000000000000B1
:103D100000000000000000000000000000000000A3
:103D200000000000000000000000000000FFFFFF96
:103D3000FF00000000000000000000000000000084
:103D40000000000000000000000000000000000073
:103D50000000000000000000000000000000000063
:103D6000000000000000000000000000001F1F0F06
:103D70000F00000000000000000000000000000034
:103D80000000000000000000000000000000000033
:103D9000B03D000800000020200800006C01000871
:103DA0004C40000820080020200A00000C1B0008DE
:103DB000012600082DC060301030E0C02C80C040CB
:103DC000016BC080101901092338F9292C78DEEF26
:103DD00084041DFFFF1F5826F0180C04C446E2E2BD
:103DE00062627252525253535050302828341C0F82
:103DF000806030180C0682838898949790011B98F5
:103E000008010313F0E01B7EE17D500B43E6DCD09C
:103E1000D8CC060101FF2AFF0744FF3F031EFC0622
:103E2000060CF8DC9F2020301010304223FC073CA9
:103E30001FF1FE25A13810707E7371783C1E0F07AC
:103E40000101C1C1810101000B14397DF3E1F37C53
:103E50007E3F1F0F380E01010306040D0B0F0B08E8
:103E6000080C064E14FEFF014BC0FEFD181088FF23
:103E7000C640406D2F2E2F3F171310180C74712A57
:103E8000F84D2D8087870601500BC6E6EEEEE6E67C
:103E9000E4ECF8F0100880C060301C0701195A18D3
:103EA0000A0C081810302060C080E6011E2DFFFEAD
:103EB0007EF00115783E1F184BF0FFD80216012B3B
:103EC000C0787E14F80F0142FF4CE03FFFEA1D81ED
:103ED000C02038C539368780C0E0E0F8E000091A14
:103EE000C3FFFFFE3CF8F8C0080F150F1F387765B9
:103EF000E5C7C1C0E0A070381F79297C1D700C0790
:103F000001E22B180E242AFFD85CFFF07F442A38E8
:103F1000EA19014819C06020311F06013F6D5BAEF0
:103F2000ACEC7C7C7EFFBFF7FFF3781F0FD6013D22
:103F30008E07040406029F19F64A03F1011819229C
:103F40002901018F100A03050911FF118905C31208
:103F5000E012F072F8073D4428FF11AA44700B8369
:103F60000138448292927401831E7C44FF017D01DA
:103F7000990562FF9A0102818A010B013669419914
:103F800049FA010101204BF808011135F818608049
:103F900035806018F82B202006312BE0101EAB1066
:103FA000E014613937043E8868186A7FA71A7FBE1B
:103FB0004C0618060A114640407F40401C1F204016
:103FC00001AB201F141162603A602F01441E402093
:103FD0002020C0ED190729EA2A4005115A600E89F0
:103FE00018792959070149260C0A0A090C360F08C5
:103FF00008080F2C080F08151D0809090E071918C5
:104000001C09090918190A5929590701605A800120
:10401000013D20087F030C300C037F253854545891
:10402000257C04047805223C40407C17FFAAAAAAFC
:1040300028080A2CFF681E26494949321016020436
:0C40400008107F320182109324F400006D
:04000005080000ED02
:00000001FF
